:1000000009C016C016C032C013C012C011C010C043
:100010000FC00EC011241FBECFE9CDBF20E0A0E667
:10002000B0E001C01D92A236B207E1F755D06CC016
:10003000E7CF1F920F920FB60F9211248F938091EA
:10004000610081110DC0B39904C0B49B02C081E06E
:1000500005C0B39B05C0B49903C082E080936100E2
:100060008F910F900FBE0F901F9018951F920F92B7
:100070000FB60F9211248F9380916100882331F184
:10008000809160008A3F30F4809160008F5F8093A0
:1000900060001CC080916100813049F486B78B3FBD
:1000A00018F486B78F5F86BFB39B0EC00BC08091DC
:1000B0006100823049F486B7882319F086B78150F1
:1000C00086BFB49910926100109260008F910F90DA
:1000D0000FBE0F901F901895B89AC09887B3877E6F
:1000E00087BB88B3886188BB81E88FBD81E083BF0F
:1000F00012BE16BE82E089BF8BB780628BBF85B30C
:0C010000886185BB7894FFCFF894FFCF96
:00000001FF
